:020000040000FA
:10000000792005305F2001288207203420342034F5
:100010002034203420342034203420342034203440
:1000200020342034203420342034203445347334B8
:1000300074347534643469346134203475346E3406
:1000400020344334693463346C346F3420344634A0
:100050006F3472346D3461347434693476346F348F
:10006000203464346534203445344C3445344334CE
:10007000543452344F344E344934433441342E34A2
:1000800020342034203420342034203420342034D0
:1000900020342034203420342034203420342034C0
:1000A0000034A0000430A002A00320080420A10016
:1000B000A10803195E28BA20A00A55280800A0004C
:1000C0000430A002A003A201B52010302202031DBB
:1000D0006E28142114210F30A00263282008042068
:1000E000A100A10803197828BA20A20AA00A65284D
:1000F000080083160510051185108312851005115F
:1001000005101A21303091201E2130309120072116
:100110003030912020309120B720B520B320A52089
:100120000800F039A30006080F39A3048316060857
:10013000A5000F30860583122308860005150511DA
:10014000831625088600831208000630B828803000
:10015000B828C030B8288038B828C038B828083047
:10016000B8280E30B8280C30B8280130B82828300C
:100170000510BC280514C420A4009120240E912051
:10018000051C20210C210800A300F13C031DCB28F5
:10019000EE30A300D8282308D13C031DD228EE302E
:1001A000A300D8282308BA3C031DD828DF30A300B9
:1001B000230808001030E1280130E1280230E1284E
:1001C0000330A6002030BA20A60BE2280800A700C2
:1001D000F039031DEF282030BA20F128A700270EA0
:1001E000F22027080F39A600093C031CFA2826082C
:1001F000303EFC282608373EBA28000000000000E8
:1002000000000000000008000000A43010290000D9
:10021000403010291F30102900000E301029053001
:10022000A800A80B11290800C8302329643023290D
:1002300032302329143023290A3023290530232979
:10024000023023290130A900F930A8000000A80BD2
:100250002629A90B24290800C830372964303729FA
:100260003230372914303729643037290530AA0055
:100270006430A900F930A8000000A80B3C29A90BA4
:080280003A29AA0B38290800F5
:02400E00513F20
:00000001FF
