:02000000CC280A
:0E00060010308312CD00CD0B0628000008003C
:1000140008308312CC002330CD00CD0B0F28CC0B3D
:040024000F28080099
:0400280000000800CC
:10002C008312BB1B1B2886131C2886173B1B2028FE
:10003C00061321280617BB1A252886122628861691
:10004C003B1A2A2806122B28061635182F280514B9
:10005C0030280510051514200511BB1937288613F7
:10006C00382886173B193C2806133D280617BB1861
:10007C0041288612422886163B1846280612472825
:10008C00061635184B2805144C2805100515142098
:0E009C000511351C53280A20542803200800A3
:0C00AA00831237088A0036088200080024
:0E00B600831235103A08BB00162035140800DE
:1000C4008316051105100612861206138613831271
:1000D4000511051086130613861206120A200A203B
:1000E4000A20861606160515142005110A20051582
:1000F400142005110A200515142005110A200612E2
:100104000515142005110A20051514200511861261
:1001140086170515142005110A20861306160515E1
:100124001420051106120515142005110A200515C1
:100134001420051106160515142005110A200612AF
:1001440005151420051186170617861606160515BB
:0A015400142005110A2035140800DC
:10015E008312B90139083807840000080319BF2833
:10016E003908380784000008BA005B20B90AB128A4
:02017E00080077
:1001800055208A110A128000840AB60A0319B70A98
:08019000C003031DC028080094
:10019800122162200130BB0016200C30BB00162053
:1001A8000C30B800AF201830BB0016202730CC0028
:1001B800F530CD00CD0BDE28CC0BDE28D728E32880
:100224000C30840029308312C000E930B60000305D
:06023400B700C020080025
:1001D200453473347434753464346934613420348E
:1001E20075346E3420344334693463346C346F3480
:1001F200203446346F3472346D346134743469346B
:1002020076346F3420346434653445346C34653468
:100212006334743472346F346E34693463346134E9
:020222000034A6
:02400E00FA3F77
:00000001FF
