:020000004B288B
:0C00060083120F088A000E088200080018
:1000120003208A110A128000840A8E0A03198F0AA9
:08002200C003031D09280800BA
:10002A0083129201930194011008940080301406FF
:10003A00C00080300A3A4002031C32280A30940277
:10004A00930A13080A3A031D31289301920A1208E7
:10005A000A3A031D312892011B280430C2001308F2
:10006A00C0000030C01BFF30C100420803194228FB
:10007A00C00DC10D4010FF3E3B281408C0070318ED
:0C008A00C10A0030941BFF30C1070800C1
:10009600BD3083128C008D01831686010C089000FA
:0E00A6000D08910015204008860051285928A9
:02400E00FA3F77
:00000001FF
