:02000000D929FC
:0C00060083120D088A000C08820008001C
:0800120083128E018F0108002A
:10001A00003083120F06031D142800300E06031D3C
:10002A00ED28013086008230CC00DD30CD00CD0BCA
:10003A001C28CC0B1C2800000000033086008230EC
:10004A00CC00DD30CD00CD0B2828CC0B28280000B1
:10005A000000073086008230CC00DD30CD00CD0BA9
:10006A003428CC0B3428000000000F308600823080
:10007A00CC00DD30CD00CD0B4028CC0B4028000051
:10008A0000001F3086008230CC00DD30CD00CD0B61
:10009A004C28CC0B4C28000000003F3086008230F0
:1000AA00CC00DD30CD00CD0B5828CC0B58280000F1
:1000BA0000007F3086008230CC00DD30CD00CD0BD1
:1000CA006428CC0B642800000000FF3086008230D0
:1000DA00CC00DD30CD00CD0B7028CC0B7028000091
:1000EA000000FF3086008230CC00DD30CD00CD0B21
:1000FA007C28CC0B7C2800000000FE308600823071
:10010A00CC00DD30CD00CD0B8828CC0B8828000030
:10011A000000FC3086008230CC00DD30CD00CD0BF3
:10012A009428CC0B942800000000F8308600823016
:10013A00CC00DD30CD00CD0BA028CC0BA0280000D0
:10014A000000F03086008230CC00DD30CD00CD0BCF
:10015A00AC28CC0BAC2800000000E03086008230CE
:10016A00CC00DD30CD00CD0BB828CC0BB828000070
:10017A000000C03086008230CC00DD30CD00CD0BCF
:10018A00C428CC0BC42800000000803086008230CE
:10019A00CC00DD30CD00CD0BD028CC0BD028000010
:1001AA000000003086008230CC00DD30CD00CD0B5F
:1001BA00DC28CC0BDC280000000086018230CC0051
:1001CA00DD30CD00CD0BE728CC0BE728000000007E
:0201DA0008001B
:1001DC008030831286008230CC00DD30CD00CD0B18
:1001EC00F528CC0BF528000000008030860082300A
:1001FC00CC00DD30CD00CD0B0129CC0B012900004A
:10020C000000C03086008230CC00DD30CD00CD0B3C
:10021C000D29CC0B0D2900000000E0308600823047
:10022C00CC00DD30CD00CD0B1929CC0B19290000E9
:10023C000000F03086008230CC00DD30CD00CD0BDC
:10024C002529CC0B252900000000F83086008230CF
:10025C00CC00DD30CD00CD0B3129CC0B3129000089
:10026C000000FC3086008230CC00DD30CD00CD0BA0
:10027C003D29CC0B3D2900000000FE308600823069
:10028C00CC00DD30CD00CD0B4929CC0B4929000029
:10029C000000FF3086008230CC00DD30CD00CD0B6D
:1002AC005529CC0B5529000000007F308600823088
:1002BC00CC00DD30CD00CD0B6129CC0B61290000C9
:1002CC0000003F3086008230CC00DD30CD00CD0BFD
:1002DC006D29CC0B6D29000000001F308600823088
:1002EC00CC00DD30CD00CD0B7929CC0B7929000069
:1002FC0000000F3086008230CC00DD30CD00CD0BFD
:10030C008529CC0B8529000000000730860082303F
:10031C00CC00DD30CD00CD0B9129CC0B9129000008
:10032C000000033086008230CC00DD30CD00CD0BD8
:10033C009D29CC0B9D2900000000013086008230E5
:10034C00CC00DD30CD00CD0BA929CC0BA9290000A8
:10035C00000086018230CC00DD30CD00CD0BB429FD
:0A036C00CC0BB429000000000800CB
:1003760083128E0A03198F0A8030C00080300F0660
:100386004002031DC8290E08013C0318CB29092089
:040396000D2008002E
:10039A0003208A110A128000840A8C0A03198D0A22
:0803AA00C003031DCD2908006A
:1003B200103083168500860109200D20051EE429D0
:0E03C200BB210D20E629BB21EE20DF29E72913
:02400E00FA3F77
:00000001FF
