:02000000442892
:100006003F3083129000063091005B3092004F30F3
:100016009300663094006D3095007D309600073071
:1000260097007F309800673099000F08103E8400D3
:080036000008C000C101080030
:0E003E0083120C088F00032040088600080083
:0C004C0083120E088A000D0882000800D4
:0600580083128C01080078
:10005E0026208A110A128000840A8D0A03198E0A3C
:08006E00C003031D2F28080048
:1000760083128C0A0C08093C031842282C201F20E6
:02008600080070
:1000880010308316850086012C201F20051E592854
:100098001A30CC00F830CD00CD0B5028CC0B5028AE
:0E00A80000003B20051E592856284A285A28D9
:02400E00FA3F77
:00000001FF
