:02000000912845
:0E0006008312031323088A00220882000800D8
:1000140003208A110A128000840AA20A0319A30A7F
:08002400F003031D0A28080087
:10002C0083120313AA01AB01AC01AD01AE01AF0108
:10003C00B001B101280884000008B000840A00084F
:10004C00B10080303106F00080307002031D302882
:10005C000A303002031C5A280A30B002031CB103C8
:10006C00AE0A0319AF0A80302F06F0008030700200
:10007C00031D42280A302E02031C4928AE01AF0191
:10008C00AC0A0319AD0A80302D06F00080307002E6
:10009C00031D52280A302C02031C5928AC01AD0157
:1000AC00AA0A0319AB0A27280430F2002A08F00028
:1000BC002B08F100720803196828F00DF10D70106F
:1000CC00FF3E61282C08F0072D080318013EF107AC
:1000DC0029088400700880007108840A80000430AC
:1000EC00F2002E08F0002F08F10072080319832883
:1000FC00F00DF10D7010FF3E7C283008F007310830
:10010C000318013EF107280884007008800071086C
:06011C00840A80000800C7
:10012200D93083120313A0002230A100A601A70137
:1001320083168701880183122008A6002108A700E0
:100142002630A8002430A90016202608870024089B
:0601520088009C28AB2888
:02400E00492F38
:00000001FF
