:02000000F828DE
:0E00060010308312CD00CD0B0628000008003C
:1000140008308312CC002330CD00CD0B0F28CC0B3D
:040024000F28080099
:0400280000000800CC
:10002C008312BD1B1B2886131C2886173D1B2028FA
:10003C00061321280617BD1A25288612262886168F
:10004C003D1A2A2806122B28061635182F280514B7
:10005C0030280510051514200511BD1937288613F5
:10006C00382886173D193C2806133D280617BD185D
:10007C0041288612422886163D1846280612472823
:10008C00061635184B2805144C2805100515142098
:0E009C000511351C53280A20542803200800A3
:0C00AA00831237088A0036088200080024
:0E00B600831235103C08BD00162035140800DA
:1000C4008316051105100612861206138613831271
:1000D4000511051086130613861206120A200A203B
:1000E4000A20861606160515142005110A20051582
:1000F400142005110A200515142005110A200612E2
:100104000515142005110A20051514200511861261
:1001140086170515142005110A20861306160515E1
:100124001420051106120515142005110A200515C1
:100134001420051106160515142005110A200612AF
:1001440005151420051186170617861606160515BB
:0A015400142005110A2035140800DC
:10015E00C02880308312B800D128C030B800D12812
:10016E009430B800D128D430B800D1288030B800EF
:10017E00D1283808013A0319B0283808023A031971
:10018E00B4283808033A0319B7283808043A031973
:10019E00BA28BD283903C0003808C0074008B80087
:1001AE004008BD0016203510BB013B083A078400FD
:1001BE0000080319EA283B083A0784000008BC002F
:0A01CE005B20BB0ADC283514080092
:1001D80055208A110A128000840AB60A0319B70A40
:0801E800C003031DEC28080010
:1001F000442162200130BD0016200C30BD001620C5
:100200000130B8001030B9000C30BA00AF201830FF
:10021000BD0016204130CC00EE30CD00CD0B0E29B4
:0A022000CC0B0E2900000729142959
:100288000C30840029308312C0001A30B6000130C7
:06029800B700EC20080095
:10023400453473347434753464346934613420342B
:1002440075346E3420344334693463346C346F341D
:10025400203446346F3472346D3461347434693408
:1002640076346F34203464346534203445346C344B
:100274006534743472346F346E3469346334613485
:02028400003444
:02400E00F13F80
:00000001FF
