:02000000CD2809
:0C000600831219088A0018088200080004
:1000120003208A110A128000840A980A0319990A95
:08002200C003031D09280800BA
:10002A00003083121306031D1C2801301206031D1B
:10003A00512816081407C10015080318013E1707AE
:10004A00C2004108940042089500970C960C971339
:10005A00171B971700304206031D3528FF3041064B
:10006A00031D5028140886000230CB000430CC004F
:10007A00BA30CD00CD0B3F28CC0B3F28CB0B3F2805
:10008A0000007F30940000309500920193014030C7
:10009A00960000309700782816081402C100170845
:1000AA00031C013E1502C200410894004208950053
:1000BA00970C960C9713171B97178030C000803047
:1000CA0042064002031D6B284108003C031C7828A5
:1000DA00803094009501403096000030970001303E
:0800EA009200003093000800B1
:1000F200003083120D06031D802801300C06031DFB
:10010200A62810080E07C1000F080318013E1107A8
:10011200C20041088E0042088F00900D910D101010
:100122008030C000803042064002031D9A284108F8
:10013200FF3C0318A528FE308E008F018C018D0133
:100142000230900000309100CC2810080E02C1004D
:100152001108031C013E0F02C20041088E00420832
:100162008F00900D910D101080304206C00080303B
:100172004002031DBE28013041020318CC28013081
:100182008E0000308F00023090000030910001306C
:080192008C0000308D00080014
:10019A0083128C018D018E018F01900191019201D0
:1001AA0093018030940095014030960097019A019E
:1001BA0010308316850086018312051EEF289A09DE
:1001CA00051EEB28803094009501E52801308E0049
:1001DA0000308F001A08003A031D04290E08860011
:1001EA000230CB000430CC00BA30CD00CD0BFB2856
:1001FA00CC0BFB28CB0BFB28000079201429140810
:10020A0086000230CB000430CC00BA30CD00CD0BD2
:10021A000C29CC0B0C29CB0B0C2900001520E1284A
:02022A00152994
:02400E00FA3F77
:00000001FF
