:020000003F2897
:0C00060083120F088A000E088200080018
:1000120003208A110A128000840A8E0A03198F0AA9
:08002200C003031D09280800BA
:10002A008312920193011008C3000A304302031C91
:10003A002D280A30C302930A13080A3A031D2C28F2
:10004A009301920A12080A3A031D2C2892011A28CF
:10005A000430C2001308C000C101420803193A283B
:10006A00C00DC10D4010FF3E33284308C0070318D6
:04007A00C10A0800AF
:10007E007C3083128C008D01831686010C08900053
:0E008E000D08910015204008860045284D28D9
:02400E00FA3F77
:00000001FF
