:02000000CC280A
:0E00060010308312CD00CD0B0628000008003C
:1000140008308312CC002330CD00CD0B0F28CC0B3D
:040024000F28080099
:0400280000000800CC
:10002C008312A21B1B2886131C288617221B202830
:10003C00061321280617A21A2528861226288616AA
:10004C00221A2A2806122B2806161E182F280514E9
:10005C0030280510051514200511A2193728861310
:10006C003828861722193C2806133D280617A21893
:10007C00412886124228861622184628061247283E
:10008C0006161E184B2805144C28051005151420AF
:0E009C0005111E1C53280A20542803200800BA
:0C00AA0083121D088A001C088200080058
:0E00B60083121E102108A20016201E1408003E
:1000C4008316051105100612861206138613831271
:1000D4000511051086130613861206120A200A203B
:1000E4000A20861606160515142005110A20051582
:1000F400142005110A200515142005110A200612E2
:100104000515142005110A20051514200511861261
:1001140086170515142005110A20861306160515E1
:100124001420051106120515142005110A200515C1
:100134001420051106160515142005110A200612AF
:1001440005151420051186170617861606160515BB
:0A015400142005110A201E140800F3
:10015E008312A00120081F07840000080319BF287E
:10016E0020081F0784000008A1005B20A00AB12808
:02017E00080077
:1001800055208A110A128000840A9C0A03199D0ACC
:08019000C003031DC028080094
:10019800483083128C006F308D006C308E006130D7
:1001A8008F00213090002C30910020309200713067
:1001B80093007530940065309500203096007430B7
:1001C8009700613098006C3099003F309A009B018D
:1001D80062200130A20016200C30A20016200C303C
:0601E8009F00AF20F62885
:02400E00F13F80
:00000001FF
