:020000000129D4
:10000600103083120313FD00FD0B072800000800C3
:10001600083083120313FC002330FD00FD0B11286A
:06002600FC0B112808008C
:04002C0000000800C8
:1000300083120313D31B1E2806121F280616531BF8
:100040002328861224288616D31A2828061329283E
:100050000617531A2D2886132E28861722183228A1
:10006000051433280510051516200511D3193A2853
:1000700006123B28061653193F288612402886167A
:10008000D318442806134528061753184928861301
:100090004A28861722184E2805144F2805100515E2
:1000A00016200511221C56280B2057280320080073
:0E00B0008312031321088A0020088200080032
:1000BE008312031322105208D300182022140800B2
:1000CE0083160313051105108613061386120612E6
:1000DE0083120511051006128612061386130B20C5
:1000EE000B200B20061786170515162005110B2061
:1000FE000515162005110B200515162005110B20D0
:10010E0086130515162005110B2005151620051151
:10011E00061306160515162005110B200612861756
:10012E0005151620051186130515162005110B2031
:10013E0005151620051186170515162005110B201D
:10014E008613051516200511061686160617861730
:0C015E000515162005110B2022140800C6
:10016A00C728803083120313CE00DA28C030CE00AD
:10017A00DA289430CE00DA28D430CE00DA2880305B
:10018A00CE00DA28831203134E08013A0319B6285F
:10019A004E08023A0319BB284E08033A0319BE282F
:1001AA004E08043A0319C128C4284F03F0004E0828
:1001BA00F0077008CE007008D30018202210D10171
:1001CA0051085007840000080319F3285108500702
:1001DA0084000008D2005F20D10AE5282214080012
:1001EA0058208A110A128000840AA00A0319A10A57
:0801FA00F003031DF5280800C5
:10020200623083120313A0000130A1002330840066
:100212002B30F000F52067200130D30018200C307D
:10022200D30018200130CE001030CF002330D00090
:10023200B5204C08013A031D30290130D3001820A3
:100242000130CE001030CF002330D000B52027304F
:10025200FC00F530FD00FD0B2C29FC0B2C29803015
:10026200113AF00080304C06700203184829013020
:10027200CE004D08CF002330D000B520CD0327306B
:10028200FC00F530FD00FD0B4429FC0B442918301D
:10029200D30018202730FC00F530FD00FD0B4F295C
:1002A200FC0B4F29CC0A8030283AF00080304C06F3
:1002B2007002031860290130CC001030CD001A29D9
:0202C2006129B0
:1002C400453473347434753464346934613420349B
:1002D40075346E3420344334693463346C346F348D
:1002E400203446346F3472346D3461347434693478
:1002F40076346F34203464346534203445346C34BB
:100304006534743472346F346E34693463346134F4
:020314000034B3
:020316000134B0
:0203180010349F
:02400E00492E39
:00000001FF
