:020000001528C1
:0C00060083120D088A000C08820008001C
:1000120003208A110A128000840A8C0A03198D0AAD
:08002200C003031D09280800BA
:10002A008316860183128601831605108312051032
:10003A0086018230CC00DD30CD00CD0B2228CC0BDE
:10004A00222800000000803086008230CC00DD309B
:10005A00CD00CD0B2E28CC0B2E2800000000C0307E
:10006A0086008230CC00DD30CD00CD0B3A28CC0B97
:10007A003A2800000000E03086008230CC00DD30F3
:10008A00CD00CD0B4628CC0B462800000000F030EE
:10009A0086008230CC00DD30CD00CD0B5228CC0B4F
:1000AA00522800000000F83086008230CC00DD3093
:1000BA00CD00CD0B5E28CC0B5E2800000000FC3082
:1000CA0086008230CC00DD30CD00CD0B6A28CC0B07
:1000DA006A2800000000FE3086008230CC00DD3045
:1000EA00CD00CD0B7628CC0B762800000000FF301F
:1000FA0086008230CC00DD30CD00CD0B8228CC0BBF
:10010A008228000000007F3086008230CC00DD307B
:10011A00CD00CD0B8E28CC0B8E28000000003F307E
:10012A0086008230CC00DD30CD00CD0B9A28CC0B76
:10013A009A28000000001F3086008230CC00DD3093
:10014A00CD00CD0BA628CC0BA628000000000F304E
:10015A0086008230CC00DD30CD00CD0BB228CC0B2E
:10016A00B22800000000073086008230CC00DD3063
:10017A00CD00CD0BBE28CC0BBE28000000000330FA
:10018A0086008230CC00DD30CD00CD0BCA28CC0BE6
:10019A00CA2800000000013086008230CC00DD3021
:1001AA00CD00CD0BD628CC0BD62800000000860146
:1001BA008230CC00DD30CD00CD0BE128CC0BE1281C
:1001CA0000000000051C1D28051CB8290130860006
:1001DA008230CC00DD30CD00CD0BF128CC0BF128DC
:1001EA0000000000033086008230CC00DD30CD00F4
:1001FA00CD0BFD28CC0BFD2800000000073086003F
:10020A008230CC00DD30CD00CD0B0929CC0B092979
:10021A00000000000F3086008230CC00DD30CD00B7
:10022A00CD0B1529CC0B1529000000001F308600C4
:10023A008230CC00DD30CD00CD0B2129CC0B212919
:10024A00000000003F3086008230CC00DD30CD0057
:10025A00CD0B2D29CC0B2D29000000007F30860004
:10026A008230CC00DD30CD00CD0B3929CC0B3929B9
:10027A0000000000FF3086008230CC00DD30CD0067
:10028A00CD0B4529CC0B452900000000FF30860024
:10029A008230CC00DD30CD00CD0B5129CC0B512959
:1002AA0000000000FE3086008230CC00DD30CD0038
:1002BA00CD0B5D29CC0B5D2900000000FC308600C7
:1002CA008230CC00DD30CD00CD0B6929CC0B6929F9
:1002DA0000000000F83086008230CC00DD30CD000E
:1002EA00CD0B7529CC0B752900000000F030860073
:1002FA008230CC00DD30CD00CD0B8129CC0B812999
:10030A0000000000E03086008230CC00DD30CD00F5
:10031A00CD0B8D29CC0B8D2900000000C030860042
:10032A008230CC00DD30CD00CD0B9929CC0B992938
:10033A0000000000803086008230CC00DD30CD0025
:10034A00CD0BA529CC0BA52900000000860182301F
:10035A00CC00DD30CD00CD0BB029CC0BB02900008C
:08036A0000000518EB28B8297A
:02400E00FA3F77
:00000001FF
