:020000040000FA
:1000000083160610831206142120212006102120B9
:100010002320032800000000000000000000000072
:1000200008000000A4301D28000040301D281F30AB
:100030001D2800000E301D2805308C008C0B1E285A
:100040000800C8303128643031283230312814306B
:1000500031280A303128053031280230312801306A
:1000600031288D00F9308C0000008C0B34288D0B6A
:1000700032280800C83045286430452832304528E9
:10008000143045280A30452805308E0064308D0034
:10009000F9308C0000008C0B4A288D0B48288E0B01
:0400A00046280800E6
:02400E00F13F80
:00000001FF
