:020000040000FA
:1000000046200301CA208C002E21B4200E301E2071
:100010008C0A0C08D32063000B288207203472342A
:1000200065347334653474346534613464346F34E6
:1000300073342E3420342034203400348D000D30BD
:100040008D028D030D080D208E008E0803192B28BC
:1000500087208D0A222808008D000D308D028D0327
:100060008F01822010300F02031D3B28FE20FE204E
:100070000F308D0230280D080D208E008E080319D8
:10008000452887208F0A8D0A32280800831605101C
:1000900005118510831285100511051004213030DB
:1000A0005E20082130305E20F12030305E2020308C
:1000B0005E2084208220802072200800F039900089
:1000C00006080F3990048316060892000F30860543
:1000D0008312100886000515051183161208860084
:1000E000831208000630852880308528C030852896
:1000F00080388528C0388528083085280E30852826
:100100000C308528013085282830051089280514F1
:10011000912091005E20110E5E20051C0A21F62020
:1001200008009000F13C031D9828EE309000A528AF
:100130001008D13C031D9F28EE309000A528100820
:10014000BA3C031DA528DF309000100808001030CD
:10015000AE280130AE280230AE28033093002030A4
:100160008720930BAF2808009400F039031DBC28AA
:1001700020308720BE289400140EBF2014080F39A9
:100180009300093C031CC7281308303EC9281308F4
:10019000373E872883128900831608140818CE2852
:1001A000831208080800831288000B089500831644
:1001B0008B13081555308900AA30890088148818D7
:1001C000DF2808110812831215088B0008000000B0
:1001D0000000000000000000000008000000A43043
:1001E000FA2800004030FA281F30FA2800000E30AC
:1001F000FA2805309600960BFB280800C8300D2918
:1002000064300D2932300D2914300D290A300D29A2
:1002100005300D2902300D2901309700F930960084
:100220000000960B1029970B0E290800C8302129D1
:1002300064302129323021291430212964302129C8
:100240000530980064309700F93096000000960B56
:100250002629970B2429980B2229080099019A0135
:100260009B000A301B02031C3E299B009A0A0A309D
:100270001A02031C31299A01990A31291A0E1B0707
:02028000080074
:02400E00F13F80
:024200000000BC
:00000001FF
