:0200000049288D
:0C00060083120D088A000C08820008001C
:1000120003208A110A128000840A8C0A03198D0AAD
:08002200C003031D09280800BA
:10002A00803083128C0000308D0010308400303014
:10003A00C00009202B300F02031C34280F085A3C39
:10004A00031C34282B300F02C000C101031CC1035A
:10005A004008103E84000008C000C10148280F086B
:10006A00D13A031D3D285530C0000030C100482850
:10007A000F08B03A031D46286330C0000030C100A3
:08008A004828C001C101080073
:100092002B3083128E00831686010E088F001520E6
:1000A200400886000230CB000430CC00BA30CD00CC
:1000B200CD0B5928CC0B5928CB0B592800008E0A9E
:1000C2000E085A3C03187E282B308E00D1308F0048
:1000D2001520400886000230CB000430CC00BA3034
:1000E200CD00CD0B7228CC0B7228CB0B72280000EE
:0E00F200B0308F001520400886004E287F2871
:10010000463404344034803400343F3406345B34A5
:100110004F3466346D347D3407347F346734413472
:1001200088340034483400340034003477347C346C
:1001300039345E34793471346F34763419341E3482
:100140007A343834373454343F3473346734503469
:100150006D3478341C343E341D3470346E3449347C
:02400E00F13F80
:00000001FF
