:02000000E229F3
:0C00060083120F088A000E088200080018
:1000120003208A110A128000840A8E0A03198F0AA9
:08002200C003031D09280800BA
:10002A0083121008203A031D1D28C001C101E129CD
:10003A001008D13A031D26285530C0000030C100EF
:10004A00E1291008B03A031D2F286330C0000030A0
:10005A00C100E1292B301002031C382810085A3C31
:10006A00031C38283C288030C000C101E12921291D
:10007A004630C0000030C100E1290430C000003021
:10008A00C100E1294030C0000030C100E1298030C0
:10009A00C000C101E129C001C101E1293F30C0000E
:1000AA000030C100E1290630C0000030C100E1295A
:1000BA005B30C0000030C100E1294F30C000003081
:1000CA00C100E1296630C0000030C100E1296D306D
:1000DA00C0000030C100E1297D30C0000030C100FD
:1000EA00E1290730C0000030C100E1297F30C0009B
:1000FA000030C100E1296730C0000030C100E129A9
:10010A004130C0000030C100E1298830C000C1017F
:10011A00E129C001C101E1294830C0000030C10015
:10012A00E129C001C101E129C001C101E129C001E0
:10013A00C101E1297730C0000030C100E1297C30DB
:10014A00C0000030C100E1293930C0000030C100D0
:10015A00E1295E30C0000030C100E1297930C000D9
:10016A000030C100E1297130C0000030C100E1292E
:10017A006F30C0000030C100E1297630C000003085
:10018A00C100E1291930C0000030C100E1291E3048
:10019A00C0000030C100E1297A30C0000030C1003F
:1001AA00E1293830C0000030C100E1293730C000F1
:1001BA000030C100E1295430C0000030C100E129FB
:1001CA003F30C0000030C100E1297330C000003068
:1001DA00C100E1296730C0000030C100E129503078
:1001EA00C0000030C100E1296D30C0000030C100FC
:1001FA00E1297830C0000030C100E1291C30C0007C
:10020A000030C100E1293E30C0000030C100E129C0
:10021A001D30C0000030C100E1297030C00000303C
:10022A00C100E1296E30C0000030C100E129493027
:10023A00C0000030C100E12910082B3A03193D28FB
:10024A001008273A0319422810082D3A031947289B
:10025A0010082E3A03194C2810082F3A031950286F
:10026A001008303A031953281008313A031958284C
:10027A001008323A03195D281008333A0319622824
:10028A001008343A031967281008353A03196C28FC
:10029A001008363A031971281008373A03197628D4
:1002AA001008383A03197B281008393A03198028AC
:1002BA0010083A3A0319852810083B3A03198A2884
:1002CA0010083C3A03198E2810083D3A0319912860
:1002DA0010083E3A0319962810083F3A031999283C
:1002EA001008403A03199C281008413A03199F281C
:1002FA001008423A0319A4281008433A0319A928F6
:10030A001008443A0319AE281008453A0319B328CD
:10031A001008463A0319B8281008473A0319BD28A5
:10032A001008483A0319C2281008493A0319C7287D
:10033A0010084A3A0319CC2810084B3A0319D12855
:10034A0010084C3A0319D62810084D3A0319DB282D
:10035A0010084E3A0319E02810084F3A0319E52805
:10036A001008503A0319EA281008513A0319EF28DD
:10037A001008523A0319F4281008533A0319F928B5
:10038A001008543A0319FE281008553A031903298C
:10039A001008563A031908291008573A03190D2963
:1003AA001008583A031912291008593A031917293B
:0A03BA0010085A3A03191C29080024
:1003C400A53083128C008D018316860100300D0642
:1003D400031DEE29A7300C06031DF329FF308312F9
:1003E40086002B308C0000308D0000300D06031D7C
:1003F400FD293C300C06031D032A3D308C000030DF
:100404008D0000300D06031D092A3E300C06031D25
:100414000F2A41308C0000308D0000300D06031D82
:10042400152A5B300C06031D1A2AA5308C008D0199
:1004340000300D06031D202AA6300C06031D252AB4
:10044400A7308C008D010C08900015204008860010
:10045400C330CC00CD30CD00CD0B2E2ACC0B2E2AB0
:0A0464008C0A03198D0AE829362AD4
:02400E00F13F80
:00000001FF
