:020000040000FA
:100000008316860183125A300920860003280F398F
:100010003039A000203C031900342008D13C0319DA
:1000200055342008B03C0319633420085A3C031CA3
:1000300080342B302002031C803482074634043481
:100040004034803400343F3406345B344F346634FB
:100050006D347D3407347F34673441348834003460
:10006000483400340034003477347C3439345E341E
:10007000793471346F34763419341E347A34383428
:10008000373454343F347334673450346D347834F7
:0C0090001C343E341D3470346E3449348E
:02400E00513F20
:00000001FF
