:100000000C9417010C9438010C9438010C943801AD
:100010000C9438010C9438010C9438010C9438017C
:100020000C9438010C9438010C9438010C9438016C
:100030000C9438010C9438010C9438010C9438015C
:100040000C9438010C9438010C9438010C9438014C
:100050000C9438010C9438010C9438010C943A013A
:100060000C9438010C9438010C9438010C9438012C
:100070000C9438010C9438010C9438010C9438011C
:100080000C9438010C9438010C9438010C9438010C
:100090000C9438010C9438010C9438010C943801FC
:1000A0000C9438010C9438010C9438010C943801EC
:1000B0000C9438010C9438010C9438010C943801DC
:1000C0000C9438010C9438010C9438010C943801CC
:1000D0000C9438010C9438010C9438010C943801BC
:1000E0000C9438010C94C0020C94AF020C94E20200
:1000F0000C94D4020C948C020C94B3020C94E6027F
:100100000C94DC020C94CE020C94A7020C94D8023E
:100110000C94C6020C9487020C94CA020C94B6028A
:100120000C94AB020C94BC020000210024002700B8
:100130002A002D00300033000101000004010701F6
:100140000A0100002200250028002B002E003100AB
:10015000340002010000050108010B010505050539
:10016000070508080808020202020A0A080804042F
:10017000040401010101010101010303030303035D
:100180000303040707070C0C0C0C0C0C0C0C0202EC
:10019000020206060606060606060B0B0B0B0B0BE9
:1001A0000B0B010210202008081020401020408076
:1001B000020102010804020101020408102040802B
:1001C00080402010080402018004020180402010B9
:1001D0000804020108040201010204081020408002
:1001E000010204081020408000000A0B02090C0DD7
:1001F0000E080703040100000000000000000000DA
:1002000000000000000000000000000000000000EE
:1002100000000000121110000000000000000000AB
:100220000000000000000000000000000000112499
:100230001FBECFEFD1E2DEBFCDBF00E00CBF12E0AA
:10024000A0E0B2E0EAEFF5E000E00BBF02C00790EB
:100250000D92A031B107D9F722E0A0E1B2E001C0D0
:100260001D92AB31B207E1F70E9484010C94FB02AE
:100270000C9400001F920F920FB60F9211242F932F
:100280003F938F939F93AF93BF9380911702909169
:100290001802A0911902B0911A023091160223E0BF
:1002A000230F2D3758F50196A11DB11D209316027D
:1002B0008093170290931802A0931902B0931A0228
:1002C0008091120290911302A0911402B091150234
:1002D0000196A11DB11D8093120290931302A09369
:1002E0001402B0931502BF91AF919F918F913F91EE
:1002F0002F910F900FBE0F901F90189526E8230F97
:100300000296A11DB11DD2CFCF93DF93CDB7DEB73B
:1003100060970FB6F894DEBF0FBECDBF789484B55A
:10032000826084BD84B5816084BD85B5826085BDF1
:1003300085B5816085BD80916E00816080936E007F
:100340001092810080918100826080938100809171
:100350008100816080938100809180008160809322
:1003600080008091B10084608093B1008091B000E2
:1003700081608093B00080919100826080939100B1
:1003800080919100816080939100809190008160C4
:10039000809390008091A10082608093A100809161
:1003A000A10081608093A1008091A0008160809372
:1003B000A000809121018260809321018091210120
:1003C00081608093210180912001816080932001D0
:1003D00080917A00846080937A0080917A008260B4
:1003E00080937A0080917A00816080937A00809176
:1003F0007A00806880937A001092C10082E090E0D9
:10040000909311028093100280911002909111023A
:100410008A3091050CF457C002E010E040E0E42E71
:1004200040E0F42E80E1E0E0F2E0DE011196019080
:100430000D928A95E1F71093110200931002A0919A
:100440001002B0911102AA30B1050CF0C5C0AD0187
:100450005527FA01E851FE4F8491FA01EE55FE4FFF
:100460009491445A5E4FFA014491442309F465C0C3
:100470001297AA0FBB1F21E030E02C0F3D1FA20FE7
:10048000B31F2C91882309F447C08150823108F0B2
:1004900043C0E82FF0E08827EF5AFD4F8F4F0C94B0
:1004A000F302AF02B3028702A702AB028C02B602CC
:1004B000BC02C002C602CA02CE02D402D8028C021A
:1004C000DC02E202E6029927FC01EE55FE4F249180
:1004D000845A9E4FFC018491882399F090E0880F04
:1004E000991FFC01E85DFE4FA591B491FC01EE5B04
:1004F000FE4F859194918FB7F894EC91E22BEC9399
:100500008FBF8091100290911102019679CF809156
:1005100080008F7780938000E42FF0E0EE0FFF1FC4
:10052000EE5BFE4FA591B4918FB7F894EC91211139
:1005300051C090959E239C938FBF80911002909103
:1005400011020196909311028093100278CF80914E
:1005500080008F7DDFCF80918000877FDBCF84B5E7
:100560008F7784BDD9CF84B58F7DFBCF8091B000CC
:100570008F778093B000D0CF8091B0008F7DF9CF7E
:10058000809190008F7780939000C6CF80919000EB
:100590008F7DF9CF80919000877FF5CF8091A0006B
:1005A0008F778093A000B8CF8091A0008F7DF9CF86
:1005B0008091A000877FF5CF809120018F77809375
:1005C0002001AACF809120018F7DF9CF8091200159
:1005D000877FF5CF9E2BAFCFE114F10409F422CF32
:1005E0000E9400001FCFEE0FFF1F881F8BBF0790D8
:0A05F000F691E02D1994F894FFCF66
:1005FA0001000000010000000100000001000000ED
:00000001FF
