:100000000C9434010C9455010C9455010C94550139
:100010000C9455010C9455010C9455010C94550108
:100020000C9455010C9455010C9455010C945501F8
:100030000C9455010C9455010C9455010C945501E8
:100040000C9455010C9455010C9455010C945501D8
:100050000C9455010C9455010C9455010C94090213
:100060000C9455010C9455010C9455010C945501B8
:100070000C9455010C9455010C9455010C945501A8
:100080000C9455010C9455010C9455010C94550198
:100090000C9455010C9455010C9455010C94550188
:1000A0000C9455010C9455010C9455010C94550178
:1000B0000C9455010C9455010C9455010C94550168
:1000C0000C9455010C9455010C9455010C94550158
:1000D0000C9455010C9455010C9455010C94550148
:1000E0000C9455010C94AC010C947F010C94830189
:1000F0000C948A010C9475010C947B010C9487017B
:100100000C9490010C94D8030C94A8010C94DE0379
:100110000C94BA010C94DB030C94B6010C949A0174
:100120000C94D5030C94B5010C94C2030C949E015D
:100130000C9494010C94E1030C94A2010C94CE0352
:100140000C94B0010C94D20300002200250028007A
:100150002B002E00310034000201000005010801CF
:100160000B0100002100240027002A002D00300090
:10017000330001010000040107010A010000200012
:100180002300260029002C002F003200000100006F
:10019000030106010901050505050705080808080A
:1001A000020202020A0A080804040404010101010F
:1001B000010101010303030303030303040707070A
:1001C0000C0C0C0C0C0C0C0C0202020206060606AF
:1001D000060606060B0B0B0B0B0B0B0B010210207C
:1001E000200808102040102040800201020108046D
:1001F0000201010204081020408080402010080401
:100200000201800402018040201008040201080459
:10021000020101020408102040800102040810209D
:10022000408000000A0B02090C0D0E0807030401B0
:1002300000000000000000000000000000000000BE
:10024000000000000000000000000000000012118B
:10025000100000000000000000000000000000008E
:10026000000000000000000011241FBECFEFD1E20B
:10027000DEBFCDBF00E00CBF12E0A0E0B2E0ECEDCD
:10028000F7E000E00BBF02C007900D92A435B10764
:10029000D9F722E0A4E5B2E001C01D92AF35B20764
:1002A000E1F70E9453020C94EC030C94000081507F
:1002B000823108F05AC0E82FF0E08827ED59FE4F50
:1002C0008F4F0C94E4038301870175017B017F014B
:1002D000B5018A01900194019A019E01A201A80131
:1002E000AC01B501B001B601BA01809180008F77F1
:1002F000809380000895809180008F7DF9CF809158
:100300008000877FF5CF84B58F7784BD089584B54D
:100310008F7DFBCF8091B0008F778093B0000895E0
:100320008091B0008F7DF9CF809190008F7780937E
:1003300090000895809190008F7DF9CF809190007A
:10034000877FF5CF8091A0008F778093A0000895DC
:100350008091A0008F7DF9CF8091A000877FF5CF9D
:10036000809120018F778093200108958091200152
:100370008F7DF9CF80912001877FF5CFFF920F937A
:100380001F93CF93DF9322E030E030935502209308
:100390005402EC012091540230915502283031056D
:1003A0000CF031C03327F901EE5DFD4F8491F90166
:1003B000E452FE4F0491F901EA56FE4F14911123C5
:1003C000A9F0FA8481110E945701E12FF0E0EE0FAD
:1003D000FF1FE85BFE4FA591B4918FB7F894EC91A5
:1003E000F1100FC000950E230C938FBF8091540223
:1003F0009091550201969093550280935402229752
:10040000C9CF0E2BF1CFDF91CF911F910F91FF90AC
:1004100008951F920F920FB60F9211242F933F93BE
:100420008F939F93AF93BF9380915B0290915C02F7
:10043000A0915D02B0915E0230915A0223E0230F39
:100440002D3758F50196A11DB11D20935A028093B6
:100450005B0290935C02A0935D02B0935E02809178
:10046000560290915702A0915802B09159020196FC
:10047000A11DB11D8093560290935702A09358027C
:10048000B0935902BF91AF919F918F913F912F915E
:100490000F900FBE0F901F90189526E8230F02961D
:1004A000A11DB11DD2CFCF93DF93CDB7DEB7C0561C
:1004B000D1090FB6F894DEBF0FBECDBF789484B5D6
:1004C000826084BD84B5816084BD85B5826085BD50
:1004D00085B5816085BD80916E00816080936E00DE
:1004E00010928100809181008260809381008091D0
:1004F0008100816080938100809180008160809381
:1005000080008091B10084608093B1008091B00040
:1005100081608093B000809191008260809391000F
:100520008091910081608093910080919000816022
:10053000809390008091A10082608093A1008091BF
:10054000A10081608093A1008091A00081608093D0
:10055000A00080912101826080932101809121017E
:10056000816080932101809120018160809320012E
:1005700080917A00846080937A0080917A00826012
:1005800080937A0080917A00816080937A008091D4
:100590007A00806880937A001092C10082E090E037
:1005A0009093550280935402809154029091550289
:1005B000883091050CF493C0AA24A394B12C60E078
:1005C000862E60E0962E8CE0E0E0F2E0DE01AB5A91
:1005D000BF4F01900D928A95E1F78CE0ECE0F2E0DC
:1005E000DE01A75BBF4F01900D928A95E1F78CE089
:1005F000E8E1F2E0DE01DD9601900D928A95E1F7E7
:100600008CE0E4E2F2E0DE01D19601900D928A9551
:10061000E1F71EA21DA2B8A6AFA21AA619A61CA693
:100620001BA61EA61DA618AA1FA68CE0E0E3F2E0FA
:10063000DE01599601900D928A95E1F78CE0ECE38A
:10064000F2E0DE011D9601900D928A95E1F78CE0B3
:10065000E8E4F2E0DE01119601900D928A95E1F74F
:10066000F12CE12C10E000E0CC24C394D12CF80153
:10067000E85CFD4F8491F801EE50FE4F7490F80154
:10068000E455FE4F6490662081F081110E9457016D
:10069000E62DF0E0EE0FFF1FE458FE4FA591B49158
:1006A000EC917E2211F0EC0CFD1C0F5F1F4F03300C
:1006B000110509F064C0F8E0EF16F10408F067C016
:1006C000F7018827E959FC4F8F4F0C94E403C203CC
:1006D000CE03D203D503D803DB03DE03E10399275E
:1006E000FC01E452FE4F24918A569E4FFC018491F6
:1006F000882399F090E0880F991FFC01EE59FE4F76
:10070000A591B491FC01E85BFE4F859194918FB760
:10071000F894EC91E22BEC938FBF8091540290916E
:100720005502853091052CF58C5E90E0FC01E45279
:10073000FE4F24918A569E4FFC0184918823C9F074
:1007400090E0880F991FFC01EE59FE4F459154919E
:10075000FC01E85BFE4FA591B4919FB7F894FA01B4
:1007600080812095822380838C91E22FE823EC9373
:100770009FBF8091540290915502019611CFCC0CED
:10078000DD1C75CFCE018B5A9F4F0E94BE01811494
:10079000910409F418CF0E94000015CFCE01875BA9
:1007A0009F4FF3CFCE01CD96F0CFCE01C196EDCFC6
:1007B000CE018596EACFCE014996E7CFCE010D96C0
:1007C000E4CFCE010196E1CFEE0FFF1F881F8BBF54
:0C07D0000790F691E02D1994F894FFCFEB
:1007DC00000000000100000001000000000000000B
:1007EC0001000000000001000100000000000000FA
:1007FC0001000100000000000100010001000100E7
:10080C0000000000000001000100010000000100D8
:10081C0000000100010001000100010001000100C5
:04082C0001000100C6
:00000001FF
